:104000000000032051D600003DD600003DD6000040
:104010003DD600003DD600003DD600000000000067
:104020000000000000000000000000003DD600007D
:104030003DD60000000000003DD60000C1D60000C3
:104040003DD600003DD600003DD600003DD6000024
:104050003DD600003DD600003DD600003DD6000014
:104060003DD600003DD600003DD600003DD6000004
:104070003DD600003DD600003DD600003DD60000F4
:104080003DD600003DD600003DD600003DD60000E4
:104090003DD600003DD600003DD600003DD60000D4
:1040A0003DD600003DD600003DD600003DD60000C4
:1040B0003DD600003DD600003DD60000DD7D00006D
:1040C000DD7D0000DD7D0000DD7D0000DD7D000088
:1040D0003DD600003DD600003DD600003DD6000094
:1040E0003DD600003DD600003DD600003DD6000084
:1040F000000000003DD600003DD600003DD6000087
:104100003DD600003DD60000A5B90000B1B90000C1
:10411000B5B90000B9B90000BDB90000C9B90000C7
:10412000CDB90000D1B900003DD600003DD6000059
:104130003DD600003DD600003DD600003DD6000033
:104140003DD600003DD600003DD600003DD6000023
:104150003DD600003DD600003DD600003DD6000013
:104160003DD600003DD600003DD600003DD6000003
:104170003DD600003DD60000000000000000000019
:1041800041D60000D3D60000D7D60000DBD6000011
:10419000000000003DD600003DD600003DD60000E6
:1041A0003DD600003DD600003DD600003DD60000C3
:1041B0003DD600003DD600003DD600003DD60000B3
:1041C0003DD600003DD600003DD600003DD60000A3
:1041D0003DD600003DD600003DD600003DD6000093
:1041E0003DD600003DD600003DD600000000000096
:1041F0003DD600003DD600003DD600003DD6000073
:104200003DD600003DD600003DD600003DD6000062
:104210003DD600003DD600003DD600003DD6000052
:104220003DD600003DD600003DD600003DD6000042
:104230003DD600003DD600003DD600003DD6000032
:104240003DD600003DD600003DD600003DD6000022
:104250003DD600003DD600003DD600003DD6000012
:104260003DD6000010B5054C237833B9044B13B18B
:104270000448AFF300800123237010BD900200209A
:10428000000000003C56010008B5034B1BB1034978
:104290000348AFF3008008BD000000009402002036
:1042A0003C560100002070477047000038B54B684D
:1042B00043608B688360CB68C3600D460B4B04463C
:1042C00040F2011240F8103B10310AF0A9FDD5F878
:1042D0001431C4F81431D5F81831C4F81831D5F8B0
:1042E0001C31C4F81C31204638BD00BFF843010022
:1042F00070B51349134D0B68134CEE5C134D2268D7
:1043000055F82650013B82EA0502114D264648BF6A
:10431000FF2343F239040B6005FB02420D4905FB04
:10432000024301EA9212C3F3094105FB03430A4326
:104330003360C3F3094343EA8223184070BD00BFD2
:10434000D4070020D4060020440B0020D402002013
:104350006D4EC64100FC1F00064A00231360064A4A
:104360001360064A1360064A1360064A1360064A41
:1043700013607047CC020020B0020020B802002079
:10438000AC020020C4020020BC020020094A0A49F5
:1043900000231360094A1360094A136001220A606E
:1043A00008490A6008490A6008490A60084A136017
:1043B000704700BFCC020020C4020020B0020020E1
:1043C000B8020020BC020020C8020020C002002069
:1043D000D807002030B5764B1B6885B0032B14D866
:1043E000DFE803F0024394C1724B1A68724B032A50
:1043F0000BD8DFE802F002252D3519686F4A91428B
:1044000003D80A224A4301321A606B4D6C4847F6C2
:10441000EF324FF4FC6101AC02F0F6FF0A222146B4
:10442000286809F0FAF920460BF0BCFD0023C0F122
:104430000A013022994240F3A780E2540133F9E7A0
:1044400019685E4A9142E0D80A224A430232DBE709
:1044500019685A4A9142D8D80A224A430332D3E70C
:104460001A680A21B2FBF1F2CEE7524B1A68524B9E
:10447000032ACAD8DFE802F0020A121A19684F4A62
:104480009142C2D80A224A430432BDE719684B4A16
:104490009142BAD80A224A430532B5E71968474A19
:1044A0009142B2D80A224A430632ADE71B68B3F5FF
:1044B0007A7F23D200224821414802F093FF47F639
:1044C000EF3211463E4802F09FFF3E493C4807F05C
:1044D00011FB002248213A4802F084FF47F6EF32F0
:1044E0004FF47841364802F08FFF3749344807F0DF
:1044F00001FB4FF4FA7009F039F986E74623334A95
:104500001360334A0120136005B030BD294B1A688F
:10451000294B032A3FF679AFDFE802F0020B141DA6
:104520001968264A91423FF670AF0A224A43073281
:104530006AE71968214A91423FF667AF0A224A4367
:10454000083261E719681D4A91423FF65EAF0A22C0
:104550004A43093258E71968184A91423FF655AF65
:104560000A224A4350E7134B1B68032B3FF64DAF1B
:10457000DFE803F0020406083C23C0E73E23BEE761
:104580003F23BCE74023BAE70A220029ACBF6118E9
:10459000211C286809F041F900224821084802F04E
:1045A00021FF2146064807F0A5FA0020ACE700BF2E
:1045B000C4020020BC020020D8070020C1CCCC0CD3
:1045C000E01600201835010027350100200A0020E0
:1045D0001C0A0020444B454A1B684549F0B513604E
:1045E000444C454EDBB2C9B0E35C16F82320434B84
:1045F00068461A60424A012304F04CFB6946414870
:1046000004F02DFB684604F02DFA3E4804F08BF9C7
:10461000024698B901463C4802F0E4FE02213A48BD
:1046200002F0E8FE4FF47841374847F6EF3202F0E7
:10463000EBFE3649344807F050FAFEE7314F0025CB
:1046400004226946384607F0B3FC042815D000223E
:10465000114602232C4802F0C8FE02212A4802F02B
:10466000C9FE4FF47841284847F6EF3202F0CCFEFD
:104670002749254807F031FAFEE756F82530009A19
:10468000534046F825300135B5F5807FD8D12A460C
:1046900020491C4807F08CFCB0F5807F15D0002223
:1046A00011460223184802F0A0FE0221164802F02B
:1046B000A1FE4FF47841144847F6EF3202F0A4FE11
:1046C0001549114807F009FAFEE712480023C218FD
:1046D000195C5278655CA65C66540233802BA55445
:1046E000F5D149B0F0BD00BFD8070020440B002031
:1046F0000C190020D4060020D4020020B4100020A1
:1047000093340100FC080020E01600209F340100D3
:10471000C0340100980F0020EC34010070B513493B
:10472000134D0B68134CEE5C134D226855F8265060
:10473000013B82EA0502114D264648BFFF2343F2A2
:1047400039040B6005FB02420D4905FB024301EAF7
:104750009212C3F3094105FB03430A433360C3F3D9
:10476000094343EA8223184070BD00BFB410002003
:10477000D4060020440B0020D40200206D4EC64118
:1047800000FC1F00F8B5524C524E94F8AC30524821
:1047900016F82320514B524F1A6094F8B73016F890
:1047A0002320504B1A60A37F16F823204E4B1A602B
:1047B00094F8943016F823204C4B1A6004F053F907
:1047C0002F210BF009FC014638460BF0E3FB38467D
:1047D0000BF0E8FB384410F8043C2E2B0ED110F8F7
:1047E000033C532B0AD110F8023C432B06D110F89E
:1047F000013C422B04BF002300F8043C384894F8E5
:10480000B0500BF0CFFB00230138984207DDB5F123
:10481000007FFA5C28BFED0915440133F5E7344BFE
:104820001B685D40334B1D60EDB2635D16F82320BD
:10483000314B00251A6094F86E3056F82330C3F3DC
:104840004743AB426FF0004003DDFFF767FF0135E0
:10485000F1E7FFF763FF294B0025186094F83F301C
:1048600056F82330C3F34723AB426FF0004003DD1B
:10487000FFF754FF0135F1E7FFF750FF204B00250C
:10488000186094F8423056F82330C3F38703AB42E4
:104890006FF0004003DDFFF741FF0135F1E7FFF75F
:1048A0003DFF184B0025186094F8EF3056F8233080
:1048B000C3F38733AB426FF0004003DDFFF72EFFF9
:1048C0000135F1E7FFF72AFF0F4B1860F8BD00BF75
:1048D000D4060020D4020020FC080020DC160020B2
:1048E000480F0020BC100020CC100020D413002062
:1048F000D8070020440B0020B4100020D816002058
:10490000B8100020C8100020D01300200023054854
:1049100005491A461A545A540133B3F5807FF9D128
:10492000704700BFD8140020D01000202DE9F843B4
:104930001A4E1B4B32681B4C1A601B4B22681A60C4
:104940006FF00040DFF86880DFF86890FFF7E6FE60
:104950000025474698F85E3059F82330C3F3C75313
:10496000AB4205DD6FF00040FFF7D8FE0135F1E7FF
:104970000E4D05F58078FF20FFF7D0FE15F8013FBA
:104980005840A8452870F6D16FF00040FFF7C6FEEA
:1049900023683060FB5C2360BDE8F883D8160020F4
:1049A000440B0020DC160020B4100020970F0020DC
:1049B000D4060020D402002010B50648064C00237F
:1049C000195D425C01330132B3F5807F4254F7D167
:1049D00010BD00BFD8140020980F00202DE9F0472B
:1049E000304C314D236815F82330236008F07EFEEB
:1049F00023682E4A55F8233018442D4B20F04040B0
:104A0000186000231946154642F823100133402B45
:104A1000FAD1DFF8A490DFF8A480264E00244F4698
:104A200040F2FF30FFF77AFE00F00F02011159F853
:104A300022C055F8213003EA0C02002AF0DC18F8F5
:104A4000012F34540134013243EA0C03B4F5807F62
:104A500088F8002045F82130E2D1DFF86490002486
:104A600004F00F034FEA241857F823A055F8283014
:104A70000AEA0303002B0FDCFF20FFF74FFE30553F
:104A8000C0B255F8283019F8002043EA0A03013271
:104A900009F8002045F828300134B4F5806FDFD1E3
:104AA000BDE8F087B4100020D4020020D01100200F
:104AB000440B0020480B002054390100CF10002087
:104AC000D010002030B59A4206DC9C1A02EB640438
:104AD000055D8D4202D1621C104630BDB4BF621C20
:104AE00004F1FF33EFE72DE9F84F07468846934678
:104AF0004C1C0546A4EB08039B451EDDEB1B26461C
:104B000015F8019F16F801AB002249463846FFF719
:104B1000D9FF2B462246013CA4EB0801884206DC63
:104B200013F8012C03F8012922786270F2E783F868
:104B30000090344682F800A0DCE7BDE8F88F000062
:104B400038B5104B104900241D46E2B26254E254BD
:104B50000134B4F5807FF8D122460B490B48FFF7AA
:104B6000C2FF22460A480749FFF7BDFF094A0A4B20
:104B70000A4813F8014D12F8011F9D424454F8D120
:104B800038BD00BFD0120020D8150020D814002056
:104B9000D0100020D7150020D0130020D8130020FB
:104BA0002DE9F84F484F494B3A68494D1A60494B37
:104BB0002A681A60484A00231946144642F823100E
:104BC0000133402BFAD1454B1A7898467AB3444EBC
:104BD00006F10409FF20FFF7A1FD16F8013F584038
:104BE000B1453070F6D1DFF804B1DFF80491DFF899
:104BF00004A1002640F2FF30FFF790FD021100F003
:104C00000F0154F822305BF8211003EA010CBCF1CB
:104C1000000FEFDC0B4344F8223016F80A3009F895
:104C200000300136042EE5D1002388F80030DFF88B
:104C3000BCB0DFF8BC900026DA4640F2FF30FFF748
:104C40006DFD021100F00F0154F822305BF82110C5
:104C500003EA010CBCF1000FEFDC0B4344F82230F7
:104C6000204BF25C09F800200136B6F5807F9846AB
:104C7000E3D1DFF884B0002640F2FF30FFF74EFDAD
:104C8000021100F00F0154F822305AF8211003EA03
:104C9000010CBCF1000FEFDC0B4344F8223016F896
:104CA0000B30013618F8033009F80030B6F5807F74
:104CB000E2D16FF00040FFF731FD2B680A4A3860FF
:104CC000D35C2B60BDE8F88FC8100020440B002097
:104CD000CC100020B4100020D0110020C4100020FF
:104CE000BF100020D8130020D40600205439010042
:104CF000480B0020C0100020980F002008B5FFF7D7
:104D000015FEFFF703FEFFF757FEFFF767FEFFF7FD
:104D100017FFBDE80840FFF743BF00002DE9F74F3C
:104D2000584E594B3268594D1A60594B2A681A60CF
:104D3000584A00231946144642F823100133402BE9
:104D4000FAD1554F3B78EBB34FF000080DF1040951
:104D5000FF20FFF7E3FC09F8080008F10108B8F1AB
:104D6000040FF5D1DFF848A1DFF838B14FF00008A3
:104D700040F2FF30FFF7D2FC484A011100F00F0C5F
:104D800054F8213052F82C2003EA020EBEF1000F35
:104D9000EEDC134344F821301BF8003008F80A30E9
:104DA00008F10108B8F1040FE2D13D4A002312F8DE
:104DB000011F19F8030001334140042B1170F6D193
:104DC00000233B70DFF8D4B0DFF8E8800027D94635
:104DD00040F2FF30FFF7A2FC021100F00F0154F87F
:104DE00022305BF8211003EA010CBCF1000FEFDC6C
:104DF0000B4344F822302B4B1A5C07F8082001378C
:104E0000B7F5807F9A46E3D1274A0023934618F8E6
:104E1000031053540133B3F5807FF8D100231BF8FE
:104E2000032008F803200133B3F5807FF7D1002772
:104E300040F2FF30FFF772FC021100F00F0154F84E
:104E4000223059F8211003EA010CBCF1000FEFDC0D
:104E50000B4344F822301AF8003018F803300BF8EE
:104E600007300137B7F5807FE2D16FF00040FFF7E0
:104E700055FC2B680D4A3060D35C2B6003B0BDE855
:104E8000F08F00BFC8100020440B0020CC10002081
:104E9000B4100020D0110020C410002054390100AB
:104EA000BF100020480B0020980F0020D4060020DF
:104EB000C0100020D813002008B5FFF72FFFBDE871
:104EC0000840FFF733BD00002DE9F843144C154BA3
:104ED0002268154E1A60154D154B30681860A85C95
:104EE000144ADFF8549012F820704FF00008013790
:104EF000FF20FFF713FC09F8080008F101084745F7
:104F0000F6DC3A460C490D4803F01BFD6FF00040FB
:104F1000FFF704FC23683060EB5C2360BDE8F88396
:104F2000D4130020B4100020D0130020D406002099
:104F3000440B0020D4020020980F0020240A0020F7
:104F40002DE9F041124C134B2268134E1A60134D99
:104F5000134B30681860A85C124A12F820704FF0AA
:104F600000080137FF2008F10108FFF7D7FB47458C
:104F7000F8DC3A460C490D4803F08FFD6FF0004015
:104F8000FFF7CCFB23683060EB5C2360BDE8F08169
:104F9000D4130020B4100020D0130020D406002029
:104FA000440B0020D4020020480B0020FC08002005
:104FB0000A4A0B48002330B513600A4A0A4C1360B2
:104FC0000A4D0B4A595D195550F8231042F8231029
:104FD0000133B3F5807FF5D130BD00BFD807002085
:104FE00054350100B4100020D4060020943901008B
:104FF000D4020020224B234A1B682DE9F0411360A4
:10500000214A224CDBB2D35C14F82320204B1A60D7
:10501000204A00231946164642F823100133402B3C
:10502000FAD1DFF878801C4F0025FF20FFF776FBD0
:10503000021100F00F0156F8223058F8211003EA4F
:10504000010CBCF1000FF0DC3D5401350B43B5F50C
:10505000807F46F82230E8D10F4B03F180051878A5
:1050600013F8011F54F8202054F8216044F8206000
:10507000D2B29D4244F82120F1D1BDE8F08100BFB9
:10508000D8070020440B0020D4060020D4020020C2
:10509000B4100020D0110020980F002054390100D6
:1050A000044A00231360044A1360044A1360044A4C
:1050B000137070479C100020A0100020A410002046
:1050C000040000200F4B70B503F580712020A5244B
:1050D000F82513F8012F1F2A8CBF002601260A2A63
:1050E00008BF00260EB97E2A00D918701A780A2A3D
:1050F00008BF1C701A78202A08BF1D708B42E8D1A7
:1051000070BD00BF970F00200E4B5A1C30B502F146
:10511000FF010A20202413F8015FA52D08BF187095
:105120001D78F82D08BF1C708B42F4D1064B00206F
:1051300013F8011D202901D00A2902D193421870C9
:10514000F6D130BD970F00209810002070B5234C89
:105150002268B2F5807F14D0214B2248B3F9002099
:10516000214BB3F9001002F03DF94FF6FF711D48D5
:1051700047F6EF3202F048F91C4B1A48197806F04E
:10518000B0FC1B4A13682360B3F5807F144620D01F
:10519000184A164DD25C2A700C214B434FF49C7078
:1051A0000F4E93FBF0F10A0100FB11310E4B326000
:1051B000196012B209B20B4802F014F94FF4FC6105
:1051C000084847F6EF3202F01FF92978054806F043
:1051D00088FC094B22681A6070BD00BF9C1000203B
:1051E000A4100020E0160020A010002004000020E1
:1051F000BC020020980F0020C002002038B5174DD7
:10520000174A184C65232B7001231360164A13604C
:10521000164A04231360164A1360164BB3F9002094
:10522000154B2046B3F9001002F0DCF847F6EF32D8
:105230004FF4FC61204602F0E7F82978204606F09A
:1052400050FC0E4B19221A600D4B03221A600D4AB6
:10525000152313600C4A136038BD00BF0500002001
:10526000C4020020E0160020C8020020BC0200207A
:10527000C0020020A4100020A0100020B4020020D2
:10528000D0020020200A00201C0A0020F8B5134E8E
:10529000134D336813492A68134F144C1A2000FB2E
:1052A000031320469B5C3B70114BB3F90020114B5C
:1052B000B3F9001002F096F847F6EF324FF4FC61B4
:1052C000204602F0A1F83978204606F00AFC0A4B85
:1052D00032681A60094B2A681A60F8BDC4020020BF
:1052E000BC020020943A010005000020E0160020D6
:1052F000A4100020A0100020C8020020C00200203E
:10530000F8B5244E2448254C254F47F6EF324FF68A
:10531000FF7102F079F832681F48120112B20021C1
:1053200002F060F833681B2101FB037120460AF08C
:1053300031FE20460AF036FE1B2884BF0023A376E8
:1053400025461649174C144806F0C7FB47F6EF32BE
:105350004FF4FC61104802F057F822680E48120121
:1053600012B2002102F03EF823680C481B2101FB19
:1053700003710AF00FFE09480AF014FE1B2888BFCB
:1053800000230649044888BFAB7606F0A6FB2368D5
:105390003360F8BDC8020020E0160020480F00204E
:1053A000480B0020C4020020F0B5394B394D1B6872
:1053B0002C689C42C9B004D1374B29221A6049B0ED
:1053C000F0BD364A364E1278013B9C4234D18AB346
:1053D0003449354C3448354F0AF0DCFD3449204619
:1053E0000AF0B2FD20460AF0DDFD0A2221183868D5
:1053F00008F013FA3B682F49013320463B600AF05E
:10540000A3FD0B2322462C49684603F043FC694662
:105410002A4803F024FC684603F024FB00231A46C4
:10542000F2540133B3F5807FFAD100232B600A22B6
:10543000194BC3E72249CCE742B31A491A480AF08C
:10544000A9FD204B18481B2101FB04310AF07CFD0B
:105450001323154A1849684603F01CFC694617488F
:1054600003F0FDFB684603F0FDFA4FF480720C492F
:10547000124803F012FB0023FF2886F80031D4DC29
:1054800033540130B0F5807FFAD1CEE70C49D5E72F
:10549000D0020020C40200201C0A0020A810002016
:1054A000980F002019340100480F00200800002048
:1054B000343401003D3401000C190020FC080020A8
:1054C00025340100480B002038B50B4C0B4DFFF77D
:1054D0001BFE0021204603F002FB28460AF062FD75
:1054E00029460246204603F02CFA204603F007FB2B
:1054F000034B31221A6038BDFC080020980F0020B1
:105500001C0A002008B50021224801F037FD0321C4
:10551000204801F0CBFC204A204B2148402102F0DA
:1055200074FC0246B8B901461A4801F05BFF02213B
:10553000184801F05FFF4FF47841164847F6EF3204
:1055400001F062FF1749134806F0C7FA4FF47A706A
:1055500008F00CF9FAE702211F2008F0B1FB022144
:10556000222008F0ADFB0221202008F0A9FB022137
:10557000212008F0A5FB0221232008F0A1FB022135
:105580001E2008F09DFB084B28221A60074B0122C1
:105590001A7008BDE0160020F417002000093D0035
:1055A0000C190020CC3301001C0A0020A810002098
:1055B00070B5124E1248134D134C4FF4A072F021E7
:1055C00001F018FC304603F03BFA30460F4E2A46F5
:1055D000214608F011FD304603F032FA30460C4EF9
:1055E0002A46214608F008FD304603F029FA2A46EB
:1055F00021463046BDE8704008F0FEBCDC070020C4
:10560000E016002000000020658A0000FC08002051
:10561000240A00202DE9F74F364D374E374C2946E6
:105620004FF48072804603F038FA08F05FF86A7829
:105630002B7813FB02F35843314B20F000401860E5
:10564000404603F058FA00218146404603F047FAED
:1056500000233360AB46B9F1000F45DD0027FF2082
:10566000FEF746FEE8550137B7F5807FF7D13A4699
:105670005946404603F065F9376864227B1C93FB6A
:10568000F2F702FB1737A9F580793360002FE2D1DA
:1056900047F6EF3AF023CDE9003A39464FF4A073CC
:1056A0002046282202F084F939462046282201F0BB
:1056B00099FE52464FF6FF71204601F0A5FE1148B3
:1056C00003F0D1F90146204606F007FA0E492046BC
:1056D00006F003FA31680A22204606F054FA0B4914
:1056E000204606F007FAB6E7404603B0BDE8F04FA3
:1056F00003F036B9980F0020AC100020E01600200F
:10570000440B0020FC0800208A3401008E34010084
:10571000F0B50022CBB0F02347F6EF341146CDE9C7
:10572000003448484FF4A07302F042F900221146B9
:10573000444801F057FE0221424801F05BFE224638
:105740004FF6FF713F4801F05FFE3F493D4806F0CC
:10575000D1F901233D4A3E4902A803F09BFA02A970
:105760003C4803F07CFA02A803F07CF9394803F0C6
:105770007CF9002861D003223649374C314D374F30
:1057800002A803F0E5F902A9334803F068FA02A879
:1057900003F068F9204603F0C6F800284DD02146F2
:1057A00002A8FEF783FD02A8FFF734FF02A803F06A
:1057B00059F9204603F0A3F9204603F054F906F006
:1057C00078F8204603F03EFA47F6EF36F023CDE9AD
:1057D000003628464FF4A0732822002102F0E8F892
:1057E00028462822002101F0FDFD32464FF6FF71C8
:1057F000284601F009FE204603F035F90146284607
:1058000006F06BF93946284606F067F9144B0A2270
:105810001968284606F0B9F94FF4FA7007F0A6FFA8
:10582000032202A80B4903F093F902A9204603F0D2
:1058300016FA02A803F016F9ACE7064803F05FF980
:105840004BB0F0BDE01600203235010046350100B6
:105850000C190020DC070020FC0800208A3401001D
:10586000AC1000202DE9F74F804603F044F9354C89
:10587000354DDFF8EC90DFF8ECA0C3B223600746AB
:1058800007F034FF2268314B314C53F82230184472
:10589000304B20F0404018600021404603F01FF9D3
:1058A00000232B60002F46DD0026FF20FEF736FF89
:1058B00009F806000136B6F5807FF6D13246494632
:1058C000404603F03EF82E686422731C93FBF2F608
:1058D00002FB1636A7F580772B60002EE2D147F643
:1058E000EF3BF023CDE9003B31464FF4A073204657
:1058F000282202F05DF831462046282201F072FD90
:105900005A464FF6FF71204601F07EFD504603F0E7
:10591000AAF80146204606F0E0F80F49204606F0B6
:10592000DCF829680A22204606F02DF90B492046AA
:1059300006F0E0F8B6E7404603B0BDE8F04F03F0EC
:105940000FB800BFB4100020B0100020D402002017
:10595000E0160020440B00208A3401008E34010040
:10596000980F0020FC0800202DE9F347FEF70AFFFE
:10597000354B3648364D374FDFF8EC80DFF8EC908A
:1059800001221A7003F0B7F8334B324918604FF414
:1059900080722E4806F00CFB002304462B60002C7E
:1059A0004EDDFF2C05DC0023E3550134B4F5807F88
:1059B000FAD1FFF7A3F9FFF787FA4FF48062414667
:1059C000484602F0BEFF4FF4807239461F4806F089
:1059D000EFFA2E681922731C93FBF2F602FB1636BF
:1059E00004462B60002EDAD147F6EF3AF023CDE9DA
:1059F000003A31464FF4A0732822184801F0D8FF2E
:105A000031462822154801F0EDFC52464FF6FF7151
:105A1000124801F0F9FC0D4803F025F801460F4843
:105A200006F05BF80E490D4806F057F829680B4858
:105A30000A2206F0A8F80B49084806F05BF8AEE722
:105A400002B0BDE8F08700BFC4100020FC080020B1
:105A5000B0100020980F0020C0100020E016002099
:105A60008A3401008E340100480B0020240A0020F3
:105A70002DE9F743FEF786FE374B384D384C394F4A
:105A8000DFF8F88001221A7000232B60FFF758FA24
:105A90004FF480623449334806F08AFA002857DD13
:105AA000FFF70AFA2E686422731C93FBF2F602FBDE
:105AB00016362B6056BBF02347F6EF39CDE9003997
:105AC00028224FF4A0733146204601F071FF2822AE
:105AD0003146204601F086FC4A464FF6FF712046CB
:105AE00001F092FC384602F0BEFF0146204605F068
:105AF000F4FF4146204605F0F0FF29680A222046BF
:105B000006F041F81949204605F0F4FF184E3268B6
:105B1000FF2A06D81749184803B0BDE8F04302F041
:105B200010BF4FF480721349134802F00AFF336824
:105B30003846A3F58073336002F0F5FE40B1FFF7FD
:105B4000FFF94FF480620849384606F031FAA5E7BC
:105B500003B0BDE8F08300BFC4100020B0100020E7
:105B6000E0160020FC080020480B00208E340100C5
:105B7000C0100020980F0020240A00208A34010061
:105B80002DE9F041CAB0FEF725FD47F6EF340022BB
:105B9000F0231146CDE90034B1484FF4A07301F071
:105BA00007FF00221146AE4801F01CFC22464FF6CA
:105BB000FF71AB4801F028FCAA49A94805F09AFFFB
:105BC0000123A94AA94902A803F064F802A9A84838
:105BD00003F045F802A802F045FFA54802F045FF92
:105BE000002800F083800122A149A24CA24FA34DBE
:105BF00002A802F0ADFF02A99E4803F030F802A807
:105C000002F030FF204602F08EFE00286ED03946AA
:105C100028460AF0BFF9204602F025FF2F210AF09E
:105C2000DBF9014628460AF08FF9954928460AF023
:105C30008BF92A461B2302A88C4903F02BF802A9F2
:105C4000904803F00CF802A802F00CFFFFF78CFE5E
:105C5000204602F054FF8B4802F051FF47F6EF3622
:105C6000F023CDE9003628224FF4A07300217C48B0
:105C700001F09EFE28220021794801F0B3FB324654
:105C80004FF6FF71764801F0BFFB204602F0EBFEB5
:105C90000146734805F021FF7B49714805F01DFF5F
:105CA0007A4B6F4819680A2205F06FFF4FF4FA70BB
:105CB00007F05CFD214602A8FEF7F8FA02A8FFF7FC
:105CC000D1FD02A802F0CEFE204602F0CCFE05F087
:105CD000F0FD012202A8664902F03AFF02A920461F
:105CE00002F0BDFF02A802F0BDFE8BE7604802F0A3
:105CF00006FF47F6EF340022F0231146CDE90034C9
:105D000057484FF4A07301F053FE00221146544847
:105D100001F068FB22464FF6FF71514801F074FB19
:105D20005B494F4805F0E6FE01235A4A4F4902A855
:105D300002F0B0FF02A94E4802F091FF02A802F063
:105D400091FE4B4802F091FE002800F08280012273
:105D50004749484C494EDFF8408102A802F0F8FE5E
:105D600002A9444802F07BFF02A802F07BFE204615
:105D700002F0D9FD00286CD0414640480AF00AF9EB
:105D8000204602F070FE2F210AF026F901463B481A
:105D90000AF0DAF839480AF005F9071F3849F0190E
:105DA0000AF0EEF80546002853D132461B23F05581
:105DB0002E4902A802F06EFF02A9324802F04FFFFE
:105DC00002A802F04FFEFFF753FE204602F097FEB6
:105DD0002C4802F094FE47F6EF37F023CDE9003768
:105DE00029464FF4A07328221D4801F0E1FD294601
:105DF00028221B4801F0F6FA3A464FF6FF71184880
:105E000001F002FB204602F02EFE0146144805F088
:105E100064FE1D49124805F060FE1C4B10481968CD
:105E20000A2205F0B2FE4FF4FA7007F09FFC2046FC
:105E300002F019FE05F03DFD012202A80C4902F016
:105E400087FE02A9204602F00AFF02A802F00AFE1D
:105E50008DE7074802F053FE4AB0BDE8F08100BF6D
:105E6000E0160020EF3301000E3401000C19002071
:105E7000DC070020FC08002048350100480F002006
:105E8000FA330100240A00208A340100B0100020F7
:105E9000FF3301000C3401004635010037B5F02313
:105EA00047F6EF340022CDE9003411464FF4A073D9
:105EB0001D481E4D01F07CFD002211461A4801F0DC
:105EC00091FA0221184801F095FA22464FF6FF7127
:105ED000154801F099FA0024295D1348013405F0B2
:105EE00000FEB4F5807FF7D1114B1B68CBB9114C84
:105EF0002B782370104B0C48B3F900200F4BB3F9EB
:105F0000001001F06FFA47F6EF324FF4FC610648DB
:105F100001F07AFA2178044803B0BDE8304005F07A
:105F2000E0BD03B030BD00BFE0160020980F002098
:105F30009C10002004000020A4100020A0100020CD
:105F400038B5344B344C19782368AE294CD1DBB1C9
:105F5000324AD118881AFF2804DC11F8010B01F825
:105F6000020CF7E7F82182F8FF10013B0C224FF4F6
:105F70009C71236053432A4893FBF1F2150101FB06
:105F80001232284B05601A60274B1A68274B1A609B
:105F9000274B1A68274B1A60FFF780FF204B2648D3
:105FA000B3F900201F4BB3F9001001F01BFA47F6BC
:105FB000EF324FF6FF71204801F026FA1F4B1E48C2
:105FC000197805F08EFD184A23681360174A13608C
:105FD0001B4BFF221A601B4B00221A601A4A0B232C
:105FE00013601A4A136038BDAF290C4A0DD102F173
:105FF000FF01881A834203DC11F8010D4870F8E7AD
:10600000F821D1540D4B1970BEE70C48D1540170E2
:10601000C4E700BF050000209C100020980F00205E
:10602000A4100020A0100020BC020020C00200200C
:10603000C4020020C8020020E01600200400002056
:10604000B4020020D0020020200A00201C0A0020F8
:10605000F0B5614C85B047F6EF350022F023CDE96D
:10606000003511464FF4A073204601F0A1FC002238
:106070001146204601F0B6F92046022101F0BAF996
:106080002A4620464FF6FF7101F0BEF953492046DB
:1060900005F023FD2A4620464FF4784100250426CA
:1060A0004FF6FF7701F0B0F94D49204605F022FD8B
:1060B0002046CDE901560097312328225E2101F0C8
:1060C00003FA2046CDE901560097322328227E218B
:1060D00001F0FAF92046CDE9015600973323282232
:1060E0009E2101F0F1F92046CDE9015600973C23AD
:1060F0002822BE2101F0E8F92046CDE9015600979B
:10610000342350225E2101F0DFF94FF4FC63009349
:106110002046CDE90156352350227E2101F0D4F9E5
:106120002046CDE901560097362350229E2101F0EA
:10613000CBF92046CDE9015600973E235022BE21DF
:1061400001F0C2F92046CDE90156009737237822A5
:106150005E2101F0B9F92046CDE9015600973823B8
:1061600078227E2101F0B0F92046CDE90156009752
:10617000392378229E2101F0A7F92046CDE9015666
:10618000009730237822BE2101F09EF92046CDE908
:10619000015600975223A0225E2101F095F9204676
:1061A000CDE9015600974D23A0227E2101F08CF904
:1061B0002046CDE9015600974523A0229E2101F0FB
:1061C00083F9CDE9015600973F23A022BE21204646
:1061D00001F07AF905B0F0BDE0160020423401006C
:1061E0004934010030B585B04FF0040C2824002557
:1061F00049010093CDE9015C13465E3100FB044286
:10620000024801F061F905B030BD00BFE016002082
:10621000F8B57C4E7C4C3368032B17D8DFE803F0CD
:10622000022A46622368032B10D8DFE803F0020835
:10623000191E4FF6FF7331220021084604E04FF685
:10624000FF73322201210020FFF7CCFF6F4F704D0A
:1062500038682B68032874D8DFE800F060829DB8A6
:106260004FF6FF7333220221EDE74FF6FF733C2216
:106270000321E8E72368032BE8D8DFE803F00208EE
:106280000D124FF6FF73342200210120DCE74FF698
:10629000FF7335220121D0E74FF6FF73362202212A
:1062A000F3E74FF6FF733E220321EEE72368032B4B
:1062B000CCD8DFE803F002080D124FF6FF73372247
:1062C00000210220C0E74FF6FF7338220121F8E7D2
:1062D0004FF6FF7339220221AFE74FF6FF733022EA
:1062E0000321EEE72368032BB0D8DFE803F00208B0
:1062F0000D124FF6FF73522200210320A4E74FF640
:10630000FF734D220121F8E74FF6FF73452202216A
:10631000F3E74FF6FF733F2203218EE7032B10D8DC
:10632000DFE803F0020814194FF4FC633122002166
:10633000084604E04FF4FC63322201210020FFF7FD
:1063400051FF3B6833602B682360F8BD4FF4FC635A
:1063500033220221F2E74FF4FC633C220321EDE7F4
:10636000032BEED8DFE803F002080D124FF4FC63B4
:10637000342200210120E2E74FF4FC6335220121A1
:10638000D6E74FF4FC6336220221F3E74FF4FC63B7
:106390003E220321EEE7032BD3D8DFE803F0020807
:1063A0000D124FF4FC63372200210220C7E74FF49F
:1063B000FC6338220121F8E74FF4FC633922022103
:1063C000B6E74FF4FC6330220321EEE7032BB8D885
:1063D000DFE803F002080D124FF4FC6352220021A3
:1063E0000320ACE74FF4FC634D220121F8E74FF4A2
:1063F000FC6345220221F3E74FF4FC633F220321B3
:1064000096E700BFC8020020C0020020C40200209E
:10641000BC0200202DE9F843B34FB44E3B68B44DA5
:10642000B44C33603A6833689A4240F03E811F2092
:1064300007F0B4FC002840F0A2802B68013B2B60E1
:10644000962007F093F92B68002B0BDA32680B2AA1
:1064500040F0BB80A84A13680A3B48BF0023136082
:1064600000232B602B683268002B0DDD0B2A40F0D7
:10647000DD80A149A1480B6800680A3383420B60A4
:1064800000DD086000232B60DFF87882D8F8003048
:10649000002B09DA98490B68002BC4BF03F1FF33C6
:1064A0000B600023C8F80030D8F80030002B2BDD3B
:1064B00091489249036809688B42BCBF013303606D
:1064C000152A1ED1D4F800900368DFF84CE24FF093
:1064D0001A0C6FF019010CFB093301FB09F173442D
:1064E0004FF0000CA1EB0E0101EB030E13F8019924
:1064F000B9F1000F00F0CC80BCF1000F01D0C0F862
:1065000000E00023C8F80030DFF8FC91D9F8003033
:10651000002B10DD152A00F0D08000F3BC800B2A80
:1065200000F0C88000239620C8F800302B60C9F81E
:10653000003007F01BF9DFF8D481D8F80030002BC9
:106540000ADD33680B2B01D1FEF7BEFF0023962036
:10655000C8F8003007F00AF93368152B00F0DE8028
:1065600000F3AE800B2B7FF45DAF634B1A68644B76
:106570001B689A423FF456AFFEF7E8FD52E722202F
:1065800007F00CFC10B92B68013358E7202007F006
:1065900005FC20B95B4A1368013B136050E72120DA
:1065A00007F0FCFB18B9574A13680133F5E72320BD
:1065B00007F0F4FB08B9544AF6E71E2007F0EEFB9B
:1065C00000287FF43DAF514AEEE7152A236823D116
:1065D000002BC8BF03F1FF334749C8BF23602068C1
:1065E0000A68DFF834C11A2303FB00236FF0190295
:1065F000424363440020A2EB0C0202EB030C13F8AD
:1066000001E9BEF1000F05D000283FF429AFC1F821
:1066100000C025E70120F0E71F2A05D1012BC4BFE8
:1066200003F1FF3323601BE7002BF8E738492368A9
:106630000968152A27D18B42B8BF01332E48B8BF4D
:106640002360D4F800C00168DFF8CCE01A2303FB14
:106650000C136FF0190101FB0CF173444FF0000CA7
:10666000A1EB0E0101EB030E13F80189B8F1000F45
:1066700006D0BCF1000F3FF405AFC0F800E001E721
:106680004FF0010CEEE78B42BCBF01332360F9E60B
:106690004FF0010C28E71F2A09D03D2A7FF442AFB2
:1066A000FDF798FE00283FF43DAFBDE8F883FEF704
:1066B0007BFE37E7FEF7A2FD34E7FFF741FC31E749
:1066C0001F2B3AD03D2B7FF4ADAE124B22681B68D6
:1066D0009A4206D1084B1A68094B1B689A423FF44C
:1066E000A1AEFFF795FD9DE6200A00201C0A0020C0
:1066F000CC020020C4020020BC020020B402002012
:10670000C0020020B0020020B8020020AC0200202D
:10671000D0020020C8020020943A01000B4B2268EE
:106720001B689A4206D10A4B1A680A4B1B689A42A8
:106730003FF478AEFEF7AAFD74E6044B22681B68AE
:106740009A423FF46FAEFEF7DBFD6BE6C802002015
:10675000BC020020C00200202DE9F0430022CBB093
:10676000F02347F6EF341146CDE9003458484FF492
:10677000A07301F01DF900221146554800F032FEC9
:106780000221534800F036FE22464FF6FF71504872
:1067900000F03AFE4F4B1B78002B60D04E494C481E
:1067A00005F0A8F94D4A01234D494E4E02A802F0CA
:1067B00071FA02A94C4802F052FA02A802F052F90A
:1067C000494802F052F9002850D003224649DFF828
:1067D0002081464D02A802F0BBF902A9434802F00D
:1067E0003EFA02A802F03EF9012408EB040928460B
:1067F00002F099F81B270C2CCCBF002000F0010000
:1068000007FB046798B3284602F02DF92F2109F001
:10681000E3FB0146364809F0BDFB4946384609F01E
:10682000B9FB334809F0BEFB1B2888BF0023314960
:10683000274888BF88F81A3005F05CF9284602F02E
:106840005EF90122284902A802F082F902A928462D
:1068500002F005FA02A802F005F90134C7E726495B
:106860001B4805F047F90123244A9DE701241E48EF
:106870001B2502F044F965432149154805F03AF912
:106880001F49701909F086FB47F6EF324FF4FC619F
:106890000F4800F0B9FD1B490D4805F02BF905F133
:1068A0001B001849304409F075FB174B1F221A6072
:1068B000164B00221A60164B01341C60154B1C60ED
:1068C000154B1C60FFF7A6FD4BB0BDE8F08300BF81
:1068D000E0160020A8100020543401000E340100FE
:1068E0000C190020480B0020DC070020FC080020C9
:1068F000480F0020490F0020673401004635010091
:106900007A34010084340100200A0020B4020020FF
:10691000D0020020C4020020C802002007B5FEF704
:10692000F7FE4FF4FA70504D504E06F01FFF2C4604
:106930002B68312B5FD026DC0B2B51D00CDC092BC4
:106940006FD00A2BF5D1FEF7ABFB494B1A78494BB8
:106950001A700B232360EBE7282B35D0292BE8D1C5
:10696000454B1B78002B48D0444801F06AFA444B51
:10697000444A4248402101F048FA3C232360424BFC
:1069800022681A60D4E73E2B44D011DC3C2B36D071
:106990003D2BCED1FFF75CFB3C4A032313603C4AFE
:1069A00013603C4A012313603B4A13603B4A1EE0DC
:1069B000402B03DD462BBCD1FFF7E2F828232360F0
:1069C0002D4B00221A70B3E7FDF7C6FCFFF7C4FE9B
:1069D000FEF778FB2368292BAAD0FFF75FFAA7E719
:1069E0002B4AFF211160294A00211160264A1360B9
:1069F000FFF710FD9CE72823ACE70923BEE700233F
:106A00003360FDF7C3FCFEF7D3FA1F4A3D23236032
:106A100013608DE7FEF7EEFA00233360FDF7B6FC56
:106A2000F3E70022F02347F6EF341146CDE90034B6
:106A30001B484FF4A07300F0BBFF0022114618481A
:106A400000F0D0FC0221164800F0D4FC4FF4FC61A9
:106A50001348224600F0D8FC1249114805F04AF8C4
:106A60000A2006F083FEFBE71C0A0020D80700205E
:106A7000980F002004000020A81000200C1900200E
:106A800000093D00F4170020200A0020D002002059
:106A9000B4020020C4020020C8020020BC02002072
:106AA000E0160020FC3A0100016070477047006862
:106AB00001F052B8006801F0A5B8006801F0A5B86F
:106AC00082B06B4683E8060093E80600006802B0D7
:106AD00001F06AB8006801F085B838B504460D4683
:106AE0004620002107F030F929462046BDE838400D
:106AF000FFF7E0BF38B504460D464620012107F0F8
:106B000023F929462046BDE83840FFF7D3BFB0F946
:106B100060007047B0F96400704737B5056890F8B9
:106B200024400094AC6AA04703B030BD2DE9F04F7B
:106B300085B005460846DDE90E181C4617460123B8
:106B40008A1A002A85F87F30A4EB0003B8BF5242AE
:106B5000002BB8BF5B429A4205DC0E462146344604
:106B60003E46074630468F4205DC26460446304600
:106B70000E4639463746061B002EB8BF7642A7EBB5
:106B8000010A8442B4BF01204FF0FF309A420396BD
:106B900002904FEA6A0689464FF000033EDDB94590
:106BA00020DC039AB61A03F101030FD5012B5644DA
:106BB0002A680ED1D2F810B043460A46284621462C
:106BC000D847029B09F101011C44002309F1010986
:106BD000E5E7CDF80080D2F81CB028460A462146E9
:106BE000D847EEE73BB12A68CDF80080D6690A465F
:106BF00021462846B047002385F87F3095F87E303F
:106C0000002B34D1012185F87E10452007F09CF837
:106C1000184805B0BDE8F04FFFF75CBFB9451EDC72
:106C2000039AB61A03F101030ED5012B56442A68C4
:106C30000DD1D2F810B0434622462846D847029BD1
:106C400009F101011C44002309F10109E6E7CDF82F
:106C50000080D2F820B028462246D847EFE7002B24
:106C6000C9D02A68CDF80080166A2246C1E705B06F
:106C7000BDE8F08F681700207FB5164604461A4617
:106C80000B46A9B19DF82010012911D190F825508B
:106C90000168029585690195456900954D69314600
:106CA000A84794F8250000EB4000400004B070BDF8
:106CB0000020FBE72DE9F3410E1E044615469846D9
:106CC000C0F29080002AC0F28D80036EB34240F380
:106CD0008980436E934240F3858090F87E3093B173
:106CE0000027424B00938DF805708DF8047002ABBD
:106CF00080F87E7013E906003D48FFF7E1FE394653
:106D0000452007F021F80021452007F01DF800215B
:106D1000462007F019F8E36E9E4220D02A2134481D
:106D2000FFF7DBFE46EA06470121462007F00CF894
:106D3000390E2F48FFF7BEFEC7F307412C48FFF777
:106D4000B9FEC7F307212A48FFF7B4FEF1B228487D
:106D5000FFF7B0FE0021462006F0F6FFE666A36EC0
:106D60009D4220D02B212248FFF7B7FE45EA054679
:106D70000121462006F0E8FF310E1D48FFF79AFE7C
:106D8000C6F307411A48FFF795FEC6F307211848D6
:106D9000FFF790FEE9B21648FFF78CFE002146206F
:106DA00006F0D2FFA5662C211148FFF796FE0121BF
:106DB000462006F0C9FF1FFA88F10D48FFF77DFE57
:106DC00094F87F3073B994F87E305BB9012184F870
:106DD0007E10452006F0B8FF054802B0BDE8F0413E
:106DE000FFF778BE02B0BDE8F08100BF80F0FA0284
:106DF000681700202DE9F0412B4B036000254FF66A
:106E0000FF7604468846456080F82C5080F8315063
:106E100080F83250C66401214520174606F094FFE1
:106E20000121452006F04CFF0121462006F08CFF91
:106E30000121462006F044FF0121472006F084FF8F
:106E40000121472006F03CFF012384F87B3084F8C1
:106E50007E3084F8803084F8813084F8823040F2CB
:106E60000113C4E909350223C4F86080C4F85880CE
:106E70006766E76584F87A5084F87C5084F87D5022
:106E800084F87F50C4E91A66C4E90255C4E904567F
:106E9000C4E906562562C4E90F55C4E91155636774
:106EA0002046BDE8F08100BF1440010090F87E301C
:106EB00073B504460E4693B100252E4B00938DF812
:106EC00005508DF8045002AB80F87E5013E906009F
:106ED0002948FFF7F5FD2946452006F035FF00213A
:106EE000452006F0070606F02FFF84F827603621BC
:106EF0002148FFF7F2FD94F82730072B0DD8DFE883
:106F000003F004242C2E3032343648211A48FFF77F
:106F1000F1FDA36D2366E36D63660A2006F018FC9D
:106F200094F87F305BB994F87E3043B90121452055
:106F300084F87E1006F008FF0F48FFF7CBFD4FF6F0
:106F4000FF73C4E91A3302B070BD28210A48FFF765
:106F5000D1FDE36D2366A36DDEE78821D6E7E82146
:106F6000F4E7C821D2E76821F0E70821CEE7A8219D
:106F7000ECE700BF80F0FA026817002090F880303C
:106F800073B504464BB30125CC480026FFF78FFDAF
:106F90002946452084F87F6084F87E5006F0D4FEB0
:106FA0002946452006F08CFE2946462006F0CCFEF8
:106FB0002946462006F084FE94F87F3084F88060ED
:106FC0005BB994F87E305BB9452084F87E50294641
:106FD00006F0BAFEB948FFF77DFD94F87E3093B114
:106FE0000025B74B00938DF805508DF8045002AB87
:106FF00013E90600B14884F87E50FFF761FD294689
:10700000452006F0A1FE0021452006F09DFE01214D
:10701000472006F099FE052006F0A8FB0021472036
:1070200006F092FE142006F0A1FB0121472006F095
:107030008BFE94F87F305BB994F87E3043B9012120
:10704000452084F87E1006F07FFE9C48FFF742FD45
:10705000962006F08BFB94F87E3093B10025984B78
:1070600000938DF805508DF8045002AB13E906002B
:10707000924884F87E50FFF723FD2946452006F00C
:1070800063FE0021452006F05FFEEF218B48FFF7ED
:1070900024FD03218948FFF72DFD80218748FFF754
:1070A00029FD02218548FFF725FDCF218348FFF701
:1070B00014FD00218148FFF71DFDC1217F48FFF726
:1070C00019FD30217D48FFF715FDED217B48FFF7C5
:1070D00004FD64217948FFF70DFD03217748FFF790
:1070E00009FD12217548FFF705FD81217348FFF75F
:1070F00001FDE8217148FFF7F0FC85216F48FFF79B
:10710000F9FC00216D48FFF7F5FC78216B48FFF78B
:10711000F1FCCB216948FFF7E0FC39216748FFF714
:10712000E9FC2C216548FFF7E5FC00216348FFF7E7
:10713000E1FC34216148FFF7DDFC02215F48FFF7E5
:10714000D9FCF7215D48FFF7C8FC20215B48FFF719
:10715000D1FCEA215948FFF7C0FC00215748FFF74E
:10716000C9FC00215548FFF7C5FCC0215348FFF773
:10717000B4FC23215148FFF7BDFCC1214F48FFF764
:10718000ACFC10214D48FFF7B5FCC5214B48FFF77B
:10719000A4FC3E214948FFF7ADFC28214748FFF7F2
:1071A000A9FCC7214548FFF798FC86214348FFF713
:1071B000A1FC36214148FFF790FC48213F48FFF7EA
:1071C00099FC3A213D48FFF788FC55213B48FFF7E1
:1071D00091FCB1213948FFF780FC00213748FFF7C7
:1071E00089FC13213548FFF785FCB6213348FFF7AA
:1071F00074FC08213148FFF77DFC82212F48FFF7FE
:1072000079FC27212D48FFF775FCF2212B48FFF769
:1072100064FC00212948FFF76DFC26212748FFF771
:107220005CFC01212548FFF765FCE0212348FFF7BE
:1072300054FC0F212148FFF75DFC31211F48FFF767
:1072400059FC2B211D48FFF755FC0C211B48FFF76B
:1072500051FC0E211948FFF74DFC08211748FFF794
:1072600049FC4E211548FFF745FCF1211348FFF773
:1072700041FC37211148FFF73DFC07210F48FFF77C
:1072800039FC10210D48FFF735FC03210B48FFF7AF
:1072900031FC0E210948FFF72DFC09210748FFF7B3
:1072A00029FC00210548FFF725FCE1210348FFF7F1
:1072B00014FC00210148FFF71DFC03E068170020C3
:1072C00080F0FA020E214548FFF714FC14214348D0
:1072D000FFF710FC03214148FFF70CFC11213F4848
:1072E000FFF708FC07213D48FFF704FC31213B482C
:1072F000FFF700FCC1213948FFF7FCFB4821374864
:10730000FFF7F8FB08213548FFF7F4FB0F2133485E
:10731000FFF7F0FB0C213148FFF7ECFB31212F4840
:10732000FFF7E8FB36212D48FFF7E4FB0F212B4840
:10733000FFF7E0FB11212948FFF7CFFB94F87F30DE
:107340005BB994F87E3043B90121452084F87E1062
:1073500006F0FAFC2148FFF7BDFB782006F006FA9C
:1073600094F87E3093B100251D4B00938DF80550A5
:107370008DF8045002AB13E90600184884F87E50DB
:10738000FFF79EFB2946452006F0DEFC0021452044
:1073900006F0DAFC29211148FFF79FFB94F87F30B3
:1073A0005BB994F87E3043B90121452084F87E1002
:1073B00006F0CAFC0948FFF78DFB94F82710204619
:1073C000FFF774FD0121482006F07AFC01214820D6
:1073D00002B0BDE8704006F0B7BC00BF68170020DF
:1073E00080F0FA02C0E90212704780F82430C0E948
:1073F00002127047072905D8002908BF012180F82B
:10740000251070470721FAE7C0E905127047000010
:107410002DE9F0412B4C069F98464FF6FF73C0E9CB
:107420001A330E4646200021154606F08DFC2046F4
:107430002A21FFF752FB48EA06460121462006F0C2
:1074400083FC310E2046FFF735FBC6F3074120468B
:10745000FFF730FBC6F307212046FFF72BFB5FFA4F
:1074600088F12046FFF726FB0021462006F06CFC41
:1074700020462B21FFF731FB47EA05450121462035
:1074800006F062FC290E2046FFF714FBC5F3074106
:107490002046FFF70FFBC5F307212046FFF70AFB45
:1074A000F9B22046FFF706FB0021462006F04CFC0F
:1074B00020462C21FFF711FB01214620BDE8F041B9
:1074C00006F042BC681700202DE9F04F8BB01F4634
:1074D000149B0493159B0693036E9DF858508B42A2
:1074E00004468846914640F3D780436E934240F36A
:1074F000D380062313FB0513002B40F3CD8002EB52
:10750000C503002B40F3C8801F2F40F2C580012D1A
:107510004FEA87066AD1069B049A934266D090F898
:107520007E300DF1200A93B14FF0000B5C4B0893B5
:107530008DF825B08DF824B080F87EB09AE806006A
:107540005848FFF7BDFA5946452006F0FDFB0021DB
:10755000452006F0F9FB09F1080300934A4608F1BB
:10756000050341462046FFF753FF4F4A3E440023A0
:107570001644F25C0AF803200133052BF9D10023ED
:10758000484FBDF810808DF825300826BDF81890BA
:107590004FF0000B1AF80B301D4214BF414649460C
:1075A00038460BF1010BFFF788FABBF1050FF1D15B
:1075B00049463846013E6D00FFF77FFA16F0FF0698
:1075C000EDB2E3D194F87F30002B65D194F87E3092
:1075D000002B61D1012184F87E10452006F0B4FB18
:1075E00030480BB0BDE8F04FFFF774BA012384F8C0
:1075F0007F302D4BCDF814803E4433440027079351
:10760000052F16BF079B0023DB5D0393012D21D1BE
:107610004FF0000A08EB070B039BDA0708D5236835
:107620001B6909EB0A021E465946049B2046B047D7
:10763000039B0AF1010A5B08BAF1080F0393EBD12F
:10764000059B01372B44062F0593D9D1002384F8DD
:107650007F30BBE70823CA461E46039BDB0714D5D1
:107660002368049A0599CDE900522046D3F824B046
:1076700052462B46D847039B5B080393731E13F0B7
:10768000FF03AA441E46E8D1DAE7069B049A934218
:10769000F1D02368069AE5E70BB0BDE8F08F00BF94
:1076A00080F0FA0268170020103B01000B0604D49A
:1076B000002380F82C3089B20EE090F82C30ABB962
:1076C00001F0E002C02A09D18A0102F4F862C28501
:1076D000012280F82C2000210846704701F0F002BA
:1076E000E02AE8D10A03C2850222F2E7022BB0F9B0
:1076F0002E2008D1890101F47C631343C385012343
:1077000080F82C30E7E701F03F01114389B20023F4
:10771000C18580F82C30DFE70D29F7B504460D460A
:1077200008D090F8823043B989B219B10A2908D03B
:107730001F2907D8012003B0F0BDFFF7B7FF0146AE
:10774000F3E7202194F8240094F82570E6680128D6
:1077500019BF00231A46082306220A2D07FB03F34C
:1077600004D13344E3600023A360E3E794F87B5043
:107770004DB1A56807FB0252256EAA42C1BF9B19F5
:10778000E3600023A36094F87C302BB1E368626E61
:107790009A42DCBF0023E360236800909D6A204684
:1077A000D4E90223A847A3681844A060C2E70000F8
:1077B00038B501F00703013B05460C46062B0BD8F4
:1077C000DFE803F00411181F262D340021F0070410
:1077D00029461A48FFF771F97CB329461748083C37
:1077E000FFF76BF924E021F0070429461348FFF75F
:1077F00064F9EDE721F0070429461048FFF75DF929
:10780000F3E721F0070429460C48FFF756F9F3E7A0
:1078100021F0070429460948FFF74FF9F3E721F063
:10782000070429460548FFF748F9F3E721F0070464
:1078300029460248FFF741F9F3E738BD68170020F1
:107840002DE9F04385B0B1F10008044615461E4607
:10785000DDF8309049DB036E434546DD436E9A42C6
:1078600043DA002ABCBFB6180025AA199342B8BF54
:107870005E1B002E39DD90F87E3093B100271C4B43
:1078800002938DF80D708DF80C7004AB80F87E704B
:1078900013E906001748FFF713F93946452006F0AB
:1078A00053FA0021452006F04FFAAB19013B009333
:1078B0002A46434641462046FFF7AAFD31461FFAB5
:1078C00089F0FFF775FF94F87F3073B994F87E3034
:1078D0005BB9012184F87E10452006F035FA054891
:1078E00005B0BDE8F043FFF7F5B805B0BDE8F0839B
:1078F00080F0FA02681700202DE9F04385B0B2F15C
:10790000000804460D461E46DDF8309049DB036E44
:10791000994246DA426E904543DA0029BCBF761898
:107920000025AA199342B8BF5E1B002E39DD90F8DE
:107930007E3093B100271C4B02938DF80D708DF8AB
:107940000C7004AB80F87E7013E906001748FFF74F
:10795000B7F83946452006F0F7F90021452006F032
:10796000F3F9AB19013B424629462046CDF8008089
:10797000FFF74EFD31461FFA89F0FFF719FF94F823
:107980007F3073B994F87E305BB9012184F87E10A2
:10799000452006F0D9F9054805B0BDE8F043FFF7EA
:1079A00099B805B0BDE8F08380F0FA0268170020AE
:1079B0002DE9FF471646026E8A4204460D461F46D1
:1079C000DDE90C8A57DD436EB34254DD0029BCBFAC
:1079D0007F180025E919002EBCBFB04400268A425A
:1079E000B8BF571B06EB08029342B8BFA3EB0608CB
:1079F000002F40DDB8F1000F3DDD90F87E309BB1E7
:107A00004FF000091D4B02938DF80D908DF80C90EE
:107A100004AB80F87E9013E906001948FFF750F890
:107A20004946452006F090F90021452006F08CF9E2
:107A300006EB0802013AEB19013B00922946324657
:107A40002046FFF7E5FC08FB07F11FFA8AF0FFF775
:107A5000AFFE94F87F3073B994F87E305BB90121A2
:107A600084F87E10452006F06FF9054804B0BDE8A3
:107A7000F047FFF72FB804B0BDE8F08780F0FA02B6
:107A80006817002010B5064C06492046FFF70CF891
:107A90002046054A0549BDE8104006F0ADBA00BFD2
:107AA000681700203818002000000020AD6A000090
:107AB000F8B5044610300D4617461E4600F04CF946
:107AC00004F1240000F048F90020C4E90E0084F815
:107AD000400060722DB90A4B0A4A0B48222107F078
:107AE00017F99DF8183063719DF81C30E3719DF80B
:107AF000203025602771A67123722046F8BD00BF93
:107B00004C400100854001005D400100437A23B9EB
:107B10008372C372C3600123437270471FB504466A
:107B200004AB006803E9060004F0E2F89DF80D30AC
:107B3000227AE17900932068002304F0FFF920689D
:107B4000029A9DF80C1004F0F6F8206804B0BDE825
:107B5000104004F0C3B8000070B50546FFF7D6FF2B
:107B60000F4E0079182404FB006393F9081006F007
:107B70002DF9A87904FB006393F9081006F026F9A3
:107B8000687904FB006494F9081006F01FF9054BAE
:107B9000284693E80600BDE87040FFF7BFBF00BF6E
:107BA000E04801007C18002017B4837A6C4684E812
:107BB000060043B19A070DD5EFF31083B3FA83F3B0
:107BC0005B09C37272B694E8060003B05DF8044B1B
:107BD000FFF7A4BFDB0742BF014B8289DA60F2E7FF
:107BE00000280040837A53B19A0703D5C37A33B192
:107BF00062B67047DB0742BF014B82891A6170474A
:107C000000280040006804F083B8F8B50646006814
:107C10000C460D4604F077F801284FEA1427E4B229
:107C20000DD121463046FFF7EDFF394660F30705D9
:107C30003046FFF7E7FF60F30F25A8B2F8BD3946DD
:107C40003046FFF7DFFF214660F30F253046FFF790
:107C5000D9FF60F30705F0E770B505460C468E18AE
:107C6000B44206D021782846FFF7CCFF04F8010B78
:107C7000F6E770BD30B5194B194A1A6085B000257A
:107C80005D711D71022430230093CDE9015431232D
:107C90002F2214491448FFF70BFF55230093CDE919
:107CA00001545623542211491148FFF701FF3E2386
:107CB0000093CDE901543F233D220E490E48FFF7C2
:107CC000F7FE43230093CDE90144442342220B49AC
:107CD0000B48FFF7EDFE05B030BD00BF7C1800205B
:107CE00000093D00343000206C170020F82F0020E0
:107CF000B017002040300020F41700204C30002046
:107D000038180020084B186840B9EFF31082074973
:107D100042B972B6BFF35F8F01220A701A6801324E
:107D20001A6070470870F9E788180020841800204E
:107D3000074B1A6852B11A68013A1A601B682BB9CE
:107D4000044B1B7813B1BFF35F8F62B6704700BF5F
:107D50008818002084180020FF22027003210022CE
:107D600042708270C270027141718260C2600261B1
:107D70007047000010B4184B03EB011191F84E103E
:107D8000C9B211F001040CD0017803EB01130121F9
:107D900083F84E10042343708368D3B15DF8044B1D
:107DA000184711F0020F08D0017803EB01130221EC
:107DB00083F84E10C3684470EFE7490709D501788E
:107DC00003EB0113042183F84E100723437003696A
:107DD000E3E75DF8044B704700A0004108B5FFF7EA
:107DE00091FF074B198C074B01F01F0153F821003D
:107DF00008B1FFF7BFFFBDE80840FFF799BF00BF1C
:107E000000A000418C180020704770B5164604464B
:107E10001A460846314600F01BFD41F24C056055FC
:107E20003046FFF799FE635D41F24D0130336354F4
:107E300001222144204602F095FEB0FA80F040096C
:107E400070BD38B541F24C050446435DFF2B0BD0A5
:107E500000F5825101220D31002002F083FE605DA9
:107E600000F0DEFCFF23635538BD000007480849D9
:107E700041F24C0341F24D02C35C3033835441F272
:107E80004E033A22C254034A06F0B6B80C19002039
:107E9000097E000000000020024B53F82030187EBD
:107EA000704700BF5C29002013B504460160D1E98A
:107EB0000103009300238DF805308DF8043002ABE8
:107EC00013E90600FFF770FE204602B010BD10B5A2
:107ED000036804465868FFF785FE204610BD000081
:107EE0002DE9F04107460D4605F000FCDFF828803B
:107EF000064658F82730FF215868FFF783FE0446EE
:107F000020B905F0F3FB801BA842F2D3201C18BF58
:107F10000120BDE8F08100BF5C290020034B53F82D
:107F20002030FD215868FFF76DBE00BF5C2900209E
:107F3000034B53F820300121187805F005BF00BF2E
:107F40005C29002010B5074B53F82030044600216F
:107F5000187805F0F9FE4FF496712046FFF7C0FF40
:107F6000012010BD5C29002013B50446032927D841
:107F7000DFE801F0021A2024124B53F8201001A868
:107F8000FFF792FF2046FFF7DDFF38B12046FFF7ED
:107F9000CFFF01A8FFF79BFF002003E001A8FFF738
:107FA00096FF012002B010BD064B53F820301B692C
:107FB0001360F1E74FF400731380EDE70123F7E757
:107FC0000420EFE75C2900201B4B2DE9F0410D4612
:107FD000174653F8206005F089FB0446FF217068BE
:107FE000FFF710FEFF2808D105F080FB001BB0F55D
:107FF000FA7FF3D30020BDE8F081FE28FAD12C46A9
:1080000005EB07084445706805D2FF21FFF7FAFD2C
:1080100004F8010BF6E74FF6FF71FFF7F6FD337D2D
:1080200004463BB13946284600F05CFC031B58422D
:108030005841E0E70120DEE75C290020174B2DE9DD
:10804000F04153F82040237D07460E4690460BB37F
:108050004FF40071304600F045FC05464FF4FA71CC
:108060003846FFF73DFF98B141466068FFF7CAFD0B
:108070004FF4007231466068FFF7EEFD29466068F4
:10808000FFF7C3FDFF216068FFF7BCFD00F01F0094
:10809000BDE8F0814FF6FF75E0E700BF5C290020E6
:1080A0002DE9F04F1E46554B89B053F82070130E42
:1080B0000093C2F307430C290193C2F307230293F1
:1080C000A1F1160A0CBF072306230393A1F1290B84
:1080D0005FFA8AF305460C4690464FF00309049375
:1080E0005FFA8BFB049B012B44D9BBF1010F41D9F3
:1080F00044F040038DF818309DF800308DF81930A9
:108100009DF804308DF81A309DF808308DF81B303A
:108110003B7D8DF81C80002B44D0052106A800F083
:10812000CFFB400040F001008DF81D00FF238DF8CB
:108130001E30039A786806A9FFF78EFD0922FF21F9
:1081400078680592FFF75EFD10F0800F824630D010
:10815000059A013AF3D1FF282BD12846FFF7E8FE14
:10816000642005F003FB2846FFF7ECFEB9F1010996
:1081700014D0B7E700231A4637212846FFF790FFAF
:1081800082462846FFF7D4FEBAF1010F06D82846EA
:10819000FFF7D8FE0028ABD14FF0FF0A504609B0D8
:1081A000BDE8F08F14F0F70FB7D001238DF81D3024
:1081B000BCE71AF0080FD0D1BAF1010FEED80D2CA0
:1081C00007D1002EEAD0FF217868FFF71BFD306051
:1081D000E4E7082C01D03A2CE0D1002EDED00424B4
:1081E000FF217868FFF70EFD3268013C00EB0220AA
:1081F00014F0FF043060F3D1D0E700BF5C29002009
:10820000F8B505460C4616461F46FFF79BFE58B1CB
:1082100021463B4632462846FFF742FF04462846A1
:10822000FFF786FE2046F8BDFF24FBE72DE9F04767
:10823000DFF858A00446894617464FEA422803262D
:108240002046FFF77FFEC8B15AF824301A7B11216F
:108250000023032A14BF42463A462046FFF720FF78
:1082600060B94FF4007249462046FFF7ADFE05465F
:108270002046FFF75DFE2DB9013EE1D12046FFF714
:1082800057FE00252846BDE8F08700BF5C29002086
:108290002DE9F74F0C9DDFF898B004468A46164644
:1082A0001F464FF000082046FFF74CFE814670B392
:1082B0005BF8243001961B7B032B14BF72023246FD
:1082C000002312212046FFF7EBFE00BB019B1D445B
:1082D000AB1B4FF40072514620460193FFF774FE2A
:1082E000019BD0B908F101081D4600231A460C2154
:1082F0002046FFF7D5FE50B92046FFF719FE1DB9FD
:10830000484603B0BDE8F08FB8F1030FCBD120464B
:10831000FFF70EFE4FF00009F2E7013647F10007C4
:10832000B5420AF5007A4FF00008D1D14546DCE7A6
:108330005C2900202DE9FF419846154B0E4653F865
:1083400020100546886910F0010417461ED103A8C5
:10835000FFF7AAFDB8F1010F11D9CDF800803A4618
:10836000234631462846FFF793FF80F00100C4B250
:1083700003A8FFF7ACFD204604B0BDE8F0813A4603
:10838000234631462846FFF751FFEEE70324F2E784
:108390005C2900202DE9F74FDFF878B004468A46C3
:1083A00090464FEA422903252046FFF7CBFDD0B186
:1083B0005BF824301A7B18210023032A14BF4A4695
:1083C00042462046FFF76CFE064660B9FE22514643
:1083D0002046FFF733FE07462046FFF7A9FD0A2F88
:1083E00005D1013DE0D12046FFF7A2FD01E00C2FB1
:1083F00001D100200BE001AB32460D212046FFF7F2
:10840000FFFE0028F5D10198B0FA80F0400903B0D2
:10841000BDE8F08F5C2900202DE9F04F85B0CDE953
:1084200000234B4B0E9C53F820A0DDE90089054644
:108430008B460F4600269AF80C30012B08D12846AF
:10844000FFF780FD68B92846FFF772FD002439E088
:108450000023224617212846FFF7D2FE0028EED03F
:10846000F1E79AF80C30032B42464FF0000318BF97
:108470004FEA482219212846FFF712FE0028E2D1D0
:10848000FC2239462846FFF7D9FD052880461DD035
:1084900001364FF4FA712846FFF722FD0028D2D0AA
:1084A000E4B92846FFF73AFD2846FFF741FD03AB44
:1084B00022460D212846FFF7A3FE18B9039CB4FA03
:1084C00084F46409204605B0BDE8F08F013C07F54F
:1084D00000774FF00006D3D12646DAE700231A468C
:1084E0000C212846FFF7DCFD04460028ABD12846C6
:1084F000FFF71EFDB8F10A0FE4D19AF80C30012BFA
:108500000CD10024DDE900890E9B18EB0408032E32
:108510000BEB4427A3EB04048DD194E72846FFF727
:1085200011FD0028EDD02346224616212846FFF7EC
:10853000B7FD38B9042203A92846FFF745FD28B145
:10854000039C24BA2846FFF7F3FCDBE70446F9E76F
:108550005C2900202DE9FF419846174B0E4653F841
:1085600020108C69E3070546174621D414F0040453
:1085700020D103A8FFF798FCB8F1010F11D9CDF86D
:1085800000803A46234631462846FFF745FF80F0F3
:108590000100C4B203A8FFF79AFC204604B0BDE86E
:1085A000F0813A46234631462846FFF7F3FEEEE7D0
:1085B0000324F2E70224F0E75C2900207FB504469B
:1085C00003252046FFF7BEFC002843D000231A46AF
:1085D00009212046FFF764FDE0BB102269462046D2
:1085E000FFF7F2FC06462046FFF7A2FC86B39DF893
:1085F00000009DF807309DF808109DF809208011B3
:1086000001280BD11804BDF808305BBA00F47C10C7
:108610009BB218430130800204B070BD9DF8060083
:108620008909800241EA830300F440601843530043
:108630009DF80A2003F0060343EAD2130233013007
:1086400098409DF8053003F00F039840400AE3E797
:10865000013DB6D12046FFF76BFC0020DCE70000AF
:108660006D4BF0B553F82040A3690546D80785B097
:1086700003D4DCB2204605B0F0BDD4E90103029377
:1086800000238DF80D308DF80C3002AF97E806000E
:108690000194FFF789FA0121207805F055FB142693
:1086A000FF216068013EFFF7ADFA16F0FF06F7D133
:1086B0003346324631462846FFF7A2FD012837D11E
:1086C000334632463B212846FFF79AFD00F0FB0077
:1086D00001282DD126753B464FF4D5720821284636
:1086E000FFF78EFD01284CD1029BC3F30B03B3F5BA
:1086F000D57F1DD13B4632463A212846FFF780FD03
:10870000012815D1029BD90212D504F0EFFF0646CD
:108710004FF08042002329212846FFF771FD0128F0
:10872000024609D104F0E2FF801BB0F57A7FEFD357
:1087300004232373247E20E00028F9D13B463A210C
:108740002846FFF75DFD0028F2D1029B5A0049D56B
:1087500003232373237B012B46D1237B032B4CD193
:108760002846FFF72BFF2D4BA26820619A424EDC72
:10877000A36923F00103A361DCB201A8FFF7A7FB03
:1087800078E73B4632463A212846FFF739FD012873
:10879000CED1029BDB02CBD504F0A8FF0646002316
:1087A0004FF4801229212846FFF72AFD012817D10E
:1087B00004F09CFF801BB0F57A7FF0D304F096FFA5
:1087C000064600234FF4801201212846FFF718FDCA
:1087D000F8B104F08BFF801BB0F57A7FF1D3A7E7E7
:1087E0000028EBD10223B4E700231A462A212846A9
:1087F000FFF706FD00289BD1AFE700234FF400727E
:1088000010212846FFF7FCFC002891D1A8E7A360BF
:10881000AEE701239DE700BF5C29002040787D0181
:108820000128F8B505460ED8084F57F8206056B114
:10883000002100F0F9FA0024304647F8254006F000
:10884000D5FA2046F8BD0120FCE700BF5C290020D6
:108850002DE9F743064602A8FF2500F8015D88468A
:10886000914600F0D3FA07469DF80700FFB9A842E9
:108870001DD01C2006F0B2FA0446D8B10125C0E98B
:10888000018906700575077385612946304605F034
:1088900017FA2946207805F057FA9DF80700064B8D
:1088A000064943F8204000F0BFFA9DF8070003B0E6
:1088B000BDE8F0832846FAE75C290020DC4001008F
:1088C00030B5074D02460023141AA14201DC1846B8
:1088D00030BD12F8014B84EA4303EB5CF4E700BFC0
:1088E000F042010030B5094D02460023141AA1429E
:1088F00001DC184630BD12F8014B84EA132435F828
:10890000144084EA03239BB2F0E700BFF04001006B
:1089100013B502AB026803F8011D54681946012221
:10892000A04702B010BD30B5D0F8140140B1D0E975
:108930000C45D0E904239D420ABF94420120002047
:1089400030BD07B5D0F8140118B9002003B05DF8A8
:1089500004FB01AB02F0A4FB0028F6D10198F5E777
:10896000D0F8140108B102F098BC704770B5D0F887
:10897000144105467CB103685B699847431C044673
:1089800009D0D5F81401D0E90C5615F1FF3246F1A3
:10899000FF3302F029FD204670BD000082B073B5A0
:1089A00041F2500606A981E80C008B59019300257D
:1089B0004FF47A73C0E901530D4B0360044630460F
:1089C00004F05AFF324606A906F02AFAC4F81851F4
:1089D000C4F81401019904F1100007F0DBFA2046F5
:1089E000C4F81C5102B0BDE8704002B0704700BF2F
:1089F000F843010082B038B504A981E80C000025D5
:108A00004FF47A73C0E901530C4B036004465020C5
:108A100004F032FF04A9502206F002FAC4F81451FF
:108A2000C4F81801189904F1100007F0B3FA2046B1
:108A3000C4F81C51BDE8384002B07047F84301004B
:108A400000224FF47A71C0E9012105490160C0F8A4
:108A50001421C0F818210274C0F81C21704700BF0F
:108A6000F843010070471030704700B5D0F8183156
:108A7000C9B013B1D0F814315BB16946103002F0BF
:108A8000F2FE40B99DF80C00C0F3001049B05DF84B
:108A900004FB0120FAE70020F8E707B5D0F814013D
:108AA00018B9002003B05DF804FB01AB02F017FA1F
:108AB0000028F6D10198F5E707B5D0F8143123B9AD
:108AC0004FF0FF3003B05DF804FB01220DF1070108
:108AD000FFF7E3FF0128F3D19DF80700F2E708B59F
:108AE000D0F814010A4628B1002302F07DFC0030C2
:108AF00018BF012008BDD0F814311869704710B5AF
:108B00000446D0F8180148B102F07CFE5021D4F898
:108B1000180105F076FA0023C4F81831D4F81401CE
:108B200050B102F054FC41F25001D4F8140105F0A8
:108B300068FA0023C4F81431D4F81C0130B14FF4A2
:108B4000907105F05EFA0023C4F8143110BD0000E6
:108B50002DE9F0410D46ADF5025D88B007461031B4
:108B60003748904607F016FAD5F81C312BB94FF468
:108B7000907004F081FEC5F81C01D5F81C11002985
:108B800059D0D5F8180102F046FE002853D1D5F887
:108B90001C61B37E002B4ED0337BFF2BEDD0284CD5
:108BA000204607F0FFF938B1231813F8013C2F2BAA
:108BB0001EBF2F232354013006F11A01204407F071
:108BC000E9F9D5F81C311B7B0DF5825513F0100F18
:108BD00005F1100518D01A49284602F0B8FD50BB1F
:108BE0000DF583534822A3F108016846129406F05C
:108BF00017F995E80C003846FFF7FCFE38460DF5EE
:108C0000025D08B0BDE8F08142460D49284601F0FA
:108C1000D1FF80B90DF5835341F24802A3F1080159
:108C200068464DF8024006F0FBF895E80C0038461F
:108C3000FFF7B4FEE2E73846FFF702FFDEE700BFCA
:108C4000652A002010B50446FFF70FFF30B1D4F8B5
:108C500018010021BDE8104002F0DDBD10BD8842C2
:108C600038B504460D4613D0FFF749FFD5F8143147
:108C7000C4F81431D5F81831C4F81831D5F81C31BE
:108C8000C4F81C3105F1100104F1100007F082F95D
:108C9000204638BD2DE9F0411F4641F24C032A4CD5
:108CA000C95CADF5075D3A23303163700DF582582C
:108CB0002F232170A37011460023064608F11008E7
:108CC0002046E37007F040F94146204602F0CBFD14
:108CD0000DF58B551035D8B998F80C30DB0617D543
:108CE0002146284602F033FD48BB0DF58C5348223F
:108CF000A3F108016846129406F092F895E80C007A
:108D00003046FFF777FE30460DF5075DBDE8F08190
:108D10003A462146284601F04DFF80B90DF58C53A7
:108D200041F24802A3F1080168464DF8024006F0FE
:108D300077F895E80C003046FFF730FEE3E7304661
:108D4000FFF77EFEDFE700BF642900207F2810B513
:108D500006D931B1FF2812D880380A4B33F81000F9
:108D600010BD084A32F8114084428BB203D0013161
:108D70008029F7D10B4603F18000C0B2F0E7002054
:108D8000EEE700BF1444010070B51E4B1E4AB0F55B
:108D9000805F28BF1346191D31F8043C0A46A3B171
:108DA000984212D331F8024C250AE4B2E618B042D8
:108DB00021DA082D09D8DFE805F005090F11131590
:108DC00017191B00C01A31F8100070BDC31A03F048
:108DD0000103C01A80B2F8E71038FBE72038F9E742
:108DE0003038F7E71A38F5E70830F3E75038F1E79D
:108DF000A0F5E350EEE70431002DCDD102EB4403A2
:108E0000C9E700BF1445010006470100054A136881
:108E100013B153681BB90123037000207047012070
:108E2000704700BF682B00200128F8B506460C46A5
:108E300005D9154B154A2921154805F069FF154D2F
:108E400055F8200020B1002345F8263005F0CEFF6C
:108E5000C4B1142005F0C2FF074618B90E4B0B4AE7
:108E60003621E9E72346024604F1100C18685968D8
:108E7000144603C4083363452246F7D118682060BE
:108E800045F82670F8BD00BFD5470100C247010074
:108E9000E5470100682B002029480100024B53F8E8
:108EA00020301B68184700BF682B0020024B53F886
:108EB00020305B68184700BF682B002010B4044CBA
:108EC00054F82040A468A4465DF8044B604700BFF6
:108ED000682B002010B4044C54F82040E468A446E9
:108EE0005DF8044B604700BF682B0020024B53F82D
:108EF00020301B69184700BF682B00204288437848
:108F0000007843EA022340EA032070472DE9304805
:108F10004168C4780B0E00250A0245EA030C44EAB6
:108F2000020B4FEA0C23847843EA1B63002545EAD1
:108F3000030C4FEA0B2244EA020B4FEA0C2344785D
:108F400043EA1B63002545EA030C4FEA0B2244EA7F
:108F5000020B4FEA0C23047843EA1B634FEA0B220F
:108F6000002544EA020045EA0301BDE830880B0A07
:108F7000017043700B0C090E8370C1707047110AA9
:108F800002704170110C120EC2701A0A0371427104
:108F90001A0C1B0E81708271C3717047024400F875
:108FA000011B9042FBD17047036B0239023B8B429D
:108FB00083BF4389406C01FB030000207047F8B574
:108FC0000568846C16461F46AA8900233046394638
:108FD00005F01EFD6A890023043405F019FD23689D
:108FE00033B1984202D3C01A0834F8E763680344E7
:108FF0001846F8BD024600F10B010020C30143EA08
:10900000500312F8010B50FA83F38A42D8B2F5D11B
:10901000704710B541780023013149011A46022AF0
:109020001DBF845C04EBC334A4B2032218BF04EB5D
:10903000530302F1010218BF9BB29142EFD81846C8
:1090400010BD0000036810B5044653B119460A4626
:1090500011F8010B1F2810D93A28F8D1591C8A425F
:1090600002D04FF0FF3007E01B78303BD9B2012926
:10907000F7D801321846226010BD014B1878FBE783
:10908000702B002038B50D46044618B900232B601C
:10909000092038BD0368002BF8D01A78002AF5D0D3
:1090A000D98882889142F1D15878FFF7FFFE10F0FD
:1090B0000100EBD123682B60EBE738B505460024AF
:1090C00035F8020B08B9204638BDFFF75DFE63088E
:1090D00003EBC433C2B212FA83F39BB2000A00EB73
:1090E000530000EBC33084B2EAE701380A4411F8B8
:1090F000013B00F8013F9142F9D17047CA7E8B7E57
:10910000032843EA022301BF487D0A7D42EA002288
:1091100043EA024318467047C2F307238A76CB76A8
:109120000378032B01BF120C0A75120A4A757047A7
:10913000F8B5856C00F14C07044601232A463946F0
:109140004078FFF7C7FEA0B9E36B626BE070EB1AE3
:10915000934201D30020F8BDA678012EFAD9636BA3
:1091600060781D442A4601233946FFF7B3FE013ECD
:10917000F3E70120EFE7C3780BB1FFF7D9BF18463B
:109180007047836C8B4270B506460D4612D0FFF7D0
:10919000F2FF044660B92A46012306F14C017078BB
:1091A000FFF78CFE00281CBF4FF0FF350124B5648B
:1091B000204670BD0024FBE72DE9F84F036B8F1E9E
:1091C000023BBB4298BF0027054691463E463C46BF
:1091D0004FF000084FF0010A696CAB894FEAD40BDD
:1091E0002846BBFBF3F31944FFF7CBFF78BBB5F878
:1091F0000CC02A6BBBFBFCF004F007030AFA03F374
:109200000CFB10B0DBB2023A2918013491F84C1073
:10921000A24201EA030193BF00245B00DBB24FF4DA
:10922000805098BF234631B908F10108C84505D1DF
:10923000B01CBDE8F88F26464FF00008A74209D0C1
:10924000002BE1D101308445C6D90123DCE74FF082
:10925000FF30EEE70020ECE72DE9F0478C1E1746C3
:109260009846E2088389416CB2FBF3F504F00704E9
:109270004FF0010909FA04F42944064603FB1525B9
:10928000E4B2304601F1010AFFF77BFF18B101207B
:10929000BDE8F0871D46721992F84C30234214BF86
:1092A00001210021414514D06340013F82F84C3038
:1092B00086F80390ECD0640014F0FF04EBD1B2897F
:1092C0006B1C9A424FF001044FF000055146E1D863
:1092D000D7E70220DCE701292DE9F0410D4640F2F5
:1092E000AB800468236B8B4240F2A6802378013B5D
:1092F000032B00F2A180DFE803F002334C6501EBA1
:109300005106E16BA389B6FBF3F320461944FFF73E
:1093100038FF18B14FF0FF30BDE8F081A189E36B51
:10932000B6FBF1F201FB12622244771C2046B7FB28
:10933000F1F1194492F84C60FFF723FF0028E9D1BE
:10934000A289B7FBF2F302FB13731C44EB0794F8FA
:109350004C0046EA00204CBF0009C0F30B00DBE7DD
:10936000A3895B08B1FBF3F3E16B20461944FFF7D7
:1093700008FF0028CED1A1896D0004F14C02B5FB95
:10938000F1F301FB1353D118D05C4D7840EA05206E
:10939000C2E7A3899B08B1FBF3F3E16B20461944B4
:1093A000FFF7EFFE0028B5D1A289AD0004F14C0013
:1093B000B5FBF2F302FB13552844FFF79FFD20F0A5
:1093C0007040A9E7D0E9046756EA070334D0836800
:1093D000A289A1EB0308C379022B0FD116F1FF304C
:1093E0004FF0000347F1FF3105F012FB6389B0FB3A
:1093F000F3F0804520D821D0681C8DE7032B02D1E3
:1094000083694345F8D8E16B92082046B5FBF2F238
:109410001144FFF7B6FE00287FF47CAFA289AD00AF
:1094200004F14C00B5FBF2F302FB13552844FFF79F
:1094300065FD20F000406FE701206DE76FF0004010
:109440006AE7F8B504682378042B0CBF4FF080520C
:109450004FF400128A4205460E4601D80220F8BD9C
:10946000CA06FBD18268A9623ABB022B15D82389B0
:10947000B3EB561FF2D9236C2B63EA622A6B002AE6
:10948000ECD0A189B6FBF1F34C3401FB13661A440E
:1094900034442A636C630020E1E7236CC271002B23
:1094A000E5D06289A78957431A46BE42114606D2C3
:1094B0002046FFF779FD2863DFE71346F1E72846EA
:1094C000FFF709FF431C024606D00128C6D9236BCB
:1094D0008342C3D9F61BE8E70120C0E701292DE943
:1094E000F04704460D46164640F29180036B8B42CE
:1094F00040F28D800378013B032B00F28880DFE887
:1095000003F00248616101EB510AC16B8389BAFB28
:10951000F3F31944FFF735FE074678BBA389BAFB7E
:10952000F3F204F14C0803FB12A215F001051FBF72
:1095300018F8023003F00F01330103F0F00314BFF9
:109540000B43F3B208F80230E16B0123E3700AF138
:109550000109A389B9FBF3F320461944FFF711FE73
:10956000074658B9A289B9FBF2F302FB139345B140
:10957000C6F3071608F803600123E3703846BDE818
:10958000F08718F80320C6F3032622F00F021643D3
:10959000F0E783895B08B1FBF3F3C16B1944FFF774
:1095A000F0FD07460028E9D1A1896D0004F14C02C5
:1095B000B5FBF1F301FB135553195655C6F30726B6
:1095C0005E70D9E783899B08B1FBF3F3C16B194443
:1095D000FFF7D7FD07460028D0D1A189AD0004F1DF
:1095E0004C03B5FBF1F201FB12521D462378042B0C
:1095F000154407D02846FFF781FC26F0704600F09E
:109600007040064331462846FFF7B1FCB4E7022715
:10961000B4E72DE9F041074605688846002932D1B4
:10962000AE69002E40D02B6BB34298BF01262B7839
:10963000042B46D1012231462846FFF7BDFD431ECB
:109640000333044628D8012301461A462846FFF76B
:1096500003FE02285FD001281CD0B8F1000F25D1ED
:109660000223FB712B78042B42D1FB79022B3FD1D3
:109670002A6BEB69AC61023A93424ED32B7943F0EB
:1096800001032B7108E0FFF726FE0128044642D9AA
:10969000431C04D14FF0FF342046BDE8F0812B6B12
:1096A0008342F9D84646C2E70126C0E7FB79022B80
:1096B000D8D1731CA342D5D0BB68F61ABE61032370
:1096C000CFE734462B6B0134A34204D8012E01D8D6
:1096D0000024E1E7022421463846FFF7FCFD00287C
:1096E000C0D0012817D00130D4D0B442EAD1EFE77E
:1096F0004FF0FF3221462846FFF7F0FE48B9B8F197
:10970000000FB5D0224641462846FFF7E7FE002865
:10971000AED00128BED00124BEE7013BEB61ADE72E
:1097200001292DE9F84306460D46174602D80220C6
:10973000BDE8F8830468236B8B42F8D972BBA94655
:1097400029463046FFF7C7FD804600B30128EED01A
:10975000B0F1FF3F4DD02378042B2ED1226BE3696B
:10976000023A934231D36A1C42450CD02378042B31
:1097700008D10023A2EB090249462046FFF76CFD01
:109780000028D5D1C146236B43454546D8D8237818
:10979000042B01D107BBF7710020C9E72378042B04
:1097A00002D1C379022BCAD04FF0FF32394620468E
:1097B000FFF794FE0028C2D0BAE7002229462046CF
:1097C000FFF78CFE0028C9D0B2E70133E3612379AB
:1097D00043F001032371C6E7F379032BDCD1B368AF
:1097E000BB42D9D8B2691344BB42D5D30223F3712B
:1097F000D2E701209CE770B5C379032B044610D152
:1098000081688369CD18A94202D10020E07107E088
:109810004E1C32462068FFF761FE31460028F2D028
:1098200070BD0020FCE7F8B50446FFF7A4FC054630
:10983000002841D12378032B36D12779012F33D14A
:1098400004F14C060146A2893046FFF7A7FB5523D9
:1098500084F84A32AA2384F84B32522341227221DF
:1098600084F84C3084F84D30612384F84E3084F80D
:109870004F2084F8322284F8333284F8301284F88E
:10988000311204F50D70E169FFF771FBA16904F570
:109890000E70FFF76CFBA26B60780132A2643B464E
:1098A0003146FFF717FB2571002211466078FFF75C
:1098B0001DFB003018BF0120F8BD2DE9F041002448
:1098C00007688C76036B06460D46002B33D03B7839
:1098D000042B3AD17E6901F11A08402796F823300B
:1098E0009C4201D37CB90BE0FA0608BF0237F3199A
:1098F00000215878F35D43EA0020FFF727FAE0B92A
:109900003F23AB7601242C440023A3766B73337979
:109910002B73DB0616D406F13800FFF7F7FAC5E91A
:109920000001727B337B43EA02236B81F27BB37BC2
:1099300043EA02232B81BDE8F081013408F8010BD2
:109940000237CBE700200021E9E7436C013309D05F
:1099500001F11A083B6933F8140000284ED12C4459
:109960000023A376716BA87E01F10B0E0C46002339
:109970002E2614F8012B202A24D0052AA4EB010C52
:1099800008BFE522BCF1090F04D1EF1800B9BE767B
:109990007E730133EF187A7398B9A2F14108B8F1D8
:1099A000190F0DD8BCF1090F91F80C8034BF4FF09E
:1099B000080C4FF0100C18EA0C0F1CBF2032D2B26A
:1099C000BA760133A645D4D128B9EA1890760A7B35
:1099D000002A08BF00232B4400245C73CB7A2B732E
:1099E00001F11C00FFF78AFAC5E9000401F1160035
:1099F000FFF784FA6881000C28819CE70021FFF7BB
:109A0000A5F930B10134B4F5807F02D008F8010B1C
:109A1000A0E70024A3E72DE9F843036B0546884639
:109A2000E3B10468876A2278042A0CBF4FF08052A1
:109A30004FF400122037BA4210D9A289B7FBF2F6D0
:109A400002FB1672002A50D1C16A0133036339B98F
:109A50002389B3EB571F48D800232B63042009E068
:109A60006389013B334240D1FFF735FC01280646AC
:109A700002D80220BDE8F883421C01D10120F9E799
:109A8000236B83422BD8B8F1000FE5D0E96A284652
:109A9000FFF7BFFD0646002840D00128E9D0431C4F
:109AA000ECD0EB7943F00403EB712046FFF763FB46
:109AB00080460028E2D10146A28904F14C00FFF75C
:109AC0006DFA31462046FFF76FFA4FF00109A064A6
:109AD0006389434515D8A36CA3EB0803A364EE6226
